:100000000EC01DC01CC01BC01AC019C018C017C02C
:1000100016C015C0D6C113C012C011C010C0112423
:100020001FBECFE5D2E0DEBFCDBF20E0A0E6B0E04E
:1000300001C01D92AE36B207E1F795D1F3C1E0CF12
:1000400086B38295817091E089270895C39A0895B7
:10005000C3980895B29902C0F9DF0895F9DF0895B1
:10006000C1980895C19A0895EBDF882311F0F8DF55
:100070000895F8DF089510926B00109260000895C3
:1000800081E090916B00911101C080E00895D8DF6C
:10009000811104C080916200811107C0D1DF8823E3
:1000A00061F080916200811108C0EADF811105C012
:1000B000809160008F5F80936000089510926300CC
:1000C000109264000895882311F08FE001C080E051
:1000D0006111806F682F80E090E092D10895682FC1
:1000E00020E030E080E070E0AB01022E02C05595C8
:1000F00047950A94E2F740FD8F5F2F5F3F4F27300F
:10010000310591F70895EF92FF921F93CF93DF93FC
:100110007C01EB0180E090E06BD1182F12951F70ED
:100120008F70DDDF833020F081E0F701808302C033
:10013000F7011082812FD3DF833018F081E08883AC
:1001400001C01882DF91CF911F91FF90EF90089529
:1001500081E08CBD82E08ABD12BE8DE789BD80E161
:1001600088BF89BF83E083BF089589B78F7E89BF29
:10017000209165003091660099B7906199BFC901DF
:100180000895CF93DF93809163008230C9F028F403
:10019000882351F0813081F18BC0833009F468C02D
:1001A000843009F471C084C0B29982C082E0809327
:1001B0006300DBDFC29690936D0080936C0078C083
:1001C000C0916C00D0916D00D0DF8C179D0780F03E
:1001D000B2990BC081E080936300C7DF8259904FD2
:1001E00090936D0080936C0063C01092630060C0B8
:1001F00082E0809363005CC0C0916C00D0916D0080
:10020000B4DF8C179D07D0F083E08093630080916A
:100210006100882361F01092610012DF882319F0D9
:100220001092620007C081E08093620003C081E009
:100230008093610081E0809364003AC0B29904C069
:1002400081E08093630034C010926300809161006C
:1002500081112EC080916200882319F010926200F3
:1002600003C081E08093620081E08093640020C03D
:10027000B29B1EC084E08093630077DFC2969093A8
:100280006D0080936C0014C0C0916C00D0916D0023
:100290006CDF8C179D0748F0B29B03C0109263007F
:1002A00007C083E08093630003C084E08093630011
:1002B000DF91CF910895CF93DF9380916B008130D0
:1002C000D1F018F0853081F140C080916000882322
:1002D00009F446C08091600081508093600081E005
:1002E00080936B0042DF86509F4F90936A0080930B
:1002F0006900ACDE35C0C0916900D0916A0035DF7D
:100300008C179D0760F085E080936B002EDF88538B
:100310009F4F90936800809367009ADE21C081E030
:1003200080936B0093DE1CC0C0916700D091680081
:100330001CDF8C179D0720F010926B0089DE10C027
:1003400085E080936B0084DE0BC085E080936B00BA
:100350000CDF88539F4F909368008093670078DE8E
:10036000DF91CF91089585B78F7B85BF86E088BBED
:100370008AE087BB6DDE74DE61E670E082E690E0C5
:10038000C2DE1092660010926500E2DE789496DE7E
:1003900072DEF7DE80916100882311F05BDE01C020
:1003A00076DE62DE88DF80916400882391F3E19934
:1003B000F0CF609161008091620085DE1092640050
:1003C000E8CF1F920F920FB60F9211248F939F9335
:1003D00080916500909166000196909366008093ED
:1003E00065009F918F910F900FBE0F901F901895F1
:1003F000E199FECF9FBB8EBBE09A99278DB30895FC
:10040000262FE199FECF9FBB8EBBE09A01970DB2DC
:10041000021639F01CBA2DBB0FB6F894E29AE19A95
:080420000FBE0895F894FFCF10
:00000001FF
