:100000000EC01DC01CC01BC01AC019C018C017C02C
:1000100016C015C0DBC113C012C011C010C011241E
:100020001FBECFE5D2E0DEBFCDBF20E0A0E6B0E04E
:1000300001C01D92AE36B207E1F76FD1F8C1E0CF33
:1000400086B38295817091E089270895C39A0895B7
:10005000C39808958AD1811102C0F8DF0895F8DFAE
:100060000895EEDF882311F083D1089583D1089598
:1000700010926900109260000895809169008130AB
:10008000D1F018F0853079F13EC08091600088236E
:1000900009F444C08091600081508093600081E049
:1000A000809369007AD186509F4F90936800809327
:1000B0006700CCDF0895809167009091680079D146
:1000C000882361F085E08093690067D188539F4F52
:1000D0009093660080936500BBDF089581E0809374
:1000E0006900B4DF0895809165009091660061D148
:1000F000882321F010926900ABDF089585E080939A
:100100006900A6DF089585E08093690046D1885391
:100110009F4F90936600809365009ADF089581E079
:1001200090916900911101C080E0089589DF8111EB
:1001300004C080916200811107C082DF882361F0D2
:1001400080916200811108C0EADF811105C08091B1
:1001500060008F5F8093600008951092630010929A
:1001600064000895809163008230E9F028F48823C8
:1001700051F08130A1F10895833009F463C08430D7
:1001800009F471C00895F1D081110AC082E0809312
:10019000630003D1C29690936B0080936A00089528
:1001A00010926300089580916A0090916B0001D1D4
:1001B000882389F0DAD081110BC081E0809363003D
:1001C000ECD08259904F90936B0080936A00089511
:1001D00010926300089582E08093630008958091F7
:1001E0006A0090916B00E5D0882389F083E08093CA
:1001F000630080916100882319F01092610003C0B0
:1002000081E08093610081E0809364000895ADD027
:10021000811104C081E0809363000895109263000F
:1002200080916100811133C080916200882319F0B0
:100230001092620003C081E08093620081E08093AD
:100240006400089592D0811104C083E0809363001C
:10025000089584E080936300A0D0C29690936B00D1
:1002600080936A00089580916A0090916B00A1D0FC
:10027000882351F07AD0882319F0109263000895F2
:1002800083E080936300089584E080936300089581
:10029000882311F08FE001C080E06111806F682F2A
:1002A00080E090E0B2D00895682F20E030E080E058
:1002B00070E0AB01022E02C0559547950A94E2F713
:1002C00040FD8F5F2F5F3F4F2730310591F7089535
:1002D000EF92FF921F93CF93DF937C01EB0180E0BD
:1002E00090E08BD0182F12951F708F70DDDF833058
:1002F00020F081E0F701808302C0F7011082812F96
:10030000D3DF833018F081E0888301C01882DF9149
:10031000CF911F91FF90EF90089585B78F7B85BF98
:10032000C29ABB9A95DE24D061E670E082E690E046
:10033000CFDF22D0789411DF9BDE14DF8091610043
:10034000882311F087DE01C0F1DE8BDE96DE80911E
:100350006400882391F3E199F0CF6091610080916E
:10036000620096DF10926400E8CF86B3847008952F
:10037000C1980895C19A089510926D0010926C0072
:1003800081E08CBD82E08ABD12BE8DE789BD80E12F
:1003900088BF89BF83E083BF089589B78F7E89BFF7
:1003A00020916C0030916D0099B7906199BFC9019F
:1003B0000895CF93DF93EC01F0DF21E08C179D07C8
:1003C00008F420E0822FDF91CF9108951F920F92C1
:1003D0000FB60F9211248F939F9380916C00909190
:1003E0006D00019690936D0080936C009F918F91AA
:1003F0000F900FBE0F901F901895E199FECF9FBBF5
:100400008EBBE09A99278DB30895262FE199FECFF0
:100410009FBB8EBBE09A01970DB2021639F01CBA51
:100420002DBB0FB6F894E29AE19A0FBE0895F894A6
:02043000FFCFFC
:00000001FF
