:100000000EC01DC01CC01BC01AC019C018C017C02C
:1000100016C015C0CBC113C012C011C010C011242E
:100020001FBECFE5D2E0DEBFCDBF20E0A0E6B0E04E
:1000300001C01D92AE36B207E1F762D1E8C1E0CF50
:1000400086B38295817091E089270895C39A0895B7
:10005000C3980895B29902C0F9DF0895F9DF0895B1
:10006000EFDF882311F074D1089574D108951092B0
:100070006900109260000895809169008130D1F08C
:1000800018F0853079F13EC080916000882309F432
:1000900044C08091600081508093600081E0809333
:1000A00069006BD186509F4F9093680080936700E2
:1000B000CDDF089580916700909168006AD1882310
:1000C00061F085E08093690058D188539F4F9093E9
:1000D000660080936500BCDF089581E0809369002D
:1000E000B5DF0895809165009091660052D1882314
:1000F00021F010926900ACDF089585E080936900DB
:10010000A7DF089585E08093690037D188539F4F1A
:1001100090936600809365009BDF089581E0909145
:100120006900911101C080E008958ADF811104C047
:1001300080916200811107C083DF882361F0809184
:100140006200811108C0EADF811105C08091600062
:100150008F5F809360000895109263001092640096
:100160000895809163008230C9F028F4882351F00B
:10017000813079F10895833009F45DC0843009F449
:1001800066C00895B29976C082E080936300F5D08E
:10019000C29690936B0080936A00089580916A00E4
:1001A00090916B00F6D0882381F0B2990BC081E06A
:1001B00080936300E2D08259904F90936B008093BC
:1001C0006A00089510926300089582E080936300AE
:1001D000089580916A0090916B00DBD0882389F0AC
:1001E00083E08093630080916100882319F010926E
:1001F000610003C081E08093610081E0809364002E
:100200000895B29904C081E080936300089510922C
:1002100063008091610081112DC08091620088236C
:1002200019F01092620003C081E08093620081E0C7
:10023000809364000895B29B1DC084E080936300A6
:100240009CD0C29690936B0080936A000895809131
:100250006A0090916B009DD0882349F0B29B03C047
:1002600010926300089583E080936300089584E012
:10027000809363000895882311F08FE001C080E02F
:100280006111806F682F80E090E0AFD00895682FF3
:1002900020E030E080E070E0AB01022E02C0559516
:1002A00047950A94E2F740FD8F5F2F5F3F4F27305D
:1002B000310591F70895EF92FF921F93CF93DF934B
:1002C0007C01EB0180E090E088D0182F12951F7020
:1002D0008F70DDDF833020F081E0F701808302C082
:1002E000F7011082812FD3DF833018F081E08883FB
:1002F00001C01882DF91CF911F91FF90EF90089578
:1003000085B78F7B85BFC29ABB9AA2DE21D061E6FA
:1003100070E082E690E0CFDF1FD078941DDFA7DE8B
:1003200020DF80916100882311F094DE01C0FDDEA2
:1003300097DEA2DE80916400882391F3E199F0CFEB
:10034000609161008091620096DF10926400E8CFB6
:10035000C1980895C19A089510926D0010926C0092
:1003600081E08CBD82E08ABD12BE8DE789BD80E14F
:1003700088BF89BF83E083BF089589B78F7E89BF17
:1003800020916C0030916D0099B7906199BFC901BF
:100390000895CF93DF93EC01F0DF21E08C179D07E8
:1003A00008F420E0822FDF91CF9108951F920F92E1
:1003B0000FB60F9211248F939F9380916C009091B0
:1003C0006D00019690936D0080936C009F918F91CA
:1003D0000F900FBE0F901F901895E199FECF9FBB15
:1003E0008EBBE09A99278DB30895262FE199FECF11
:1003F0009FBB8EBBE09A01970DB2021639F01CBA72
:100400002DBB0FB6F894E29AE19A0FBE0895F894C6
:02041000FFCF1C
:00000001FF
