:100000000EC01DC01CC01BC01AC019C018C017C02C
:1000100016C015C087C313C012C011C010C0112470
:100020001FBECFE5D2E0DEBFCDBF20E0A0E6B0E04E
:1000300001C01D92AE37B207E1F75FD1A4C3E0CF94
:10004000BB9AC3980895C39A0895C39808951092CF
:100050006600109260001092610008958091600027
:100060008F3F19F08F5F80936000089581E0809347
:100070006100089580916100882319F01092610059
:1000800081E00895F7DF882331F010926000DDDF12
:10009000109266000895809166008130C1F018F0DA
:1000A000863069F13CC080916000882309F442C029
:1000B00081508093600081E0809366001AD386505F
:1000C0009F4F9093650080936400BDDF08958091F9
:1000D00064009091650019D3882361F086E08093D5
:1000E000660007D382579D4E909363008093620011
:1000F000ACDF089581E080936600A5DF08958091CC
:1001000062009091630001D3882321F01092660071
:100110009CDF089586E08093660097DF089586E06F
:1001200080936600E6D282579D4E90936300809341
:1001300062008BDF089581E090916600911101C00B
:1001400080E008950FD1811102C07DDF08957DDF29
:100150000895BC98C498089581E080936A008093C4
:100160006900089580916900089586B38295817031
:1001700091E089270895CF93F8DFC82F80916A0016
:10018000C81731F0B6D20A96909368008093670042
:10019000C0936A008091670090916800B6D2811187
:1001A000C0936900CF91089585B78F7B85BFB898BC
:1001B000C09A089586B38170089510926B000895D7
:1001C00081E080936B000895982F80916B008823C5
:1001D00091F0E1990FC0992311F08FE001C080E008
:1001E0006111806F682F82E390E0BBD210926B00A8
:1001F00081E0089580E00895682F20E030E080E0FD
:1002000070E0AB01022E02C0559547950A94E2F7C3
:1002100040FD8F5F2F5F3F4F2730310591F70895E5
:10022000EF92FF921F93CF93DF937C01EB0182E368
:1002300090E08FD2182F12951F708F70DDDF833002
:1002400020F081E0F701808302C0F7011082812F46
:10025000D3DF833018F081E0888301C01882DF91FA
:10026000CF911F91FF90EF9008957FD0882379F070
:1002700080916C0081110BC080916D00882319F072
:1002800010926D0003C081E080936D0099DF0895A6
:1002900074D0882369F080916C00882321F010923B
:1002A0006C0044D104C081E080936C0043D188DFAE
:1002B00008956BD0882311F0C8DE089580916C00FA
:1002C000882319F0D3DE3EDF08954CDF811104C08E
:1002D00080916D00811107C045DF882341F0809136
:1002E0006D00811104C027DF811101C0B7DE0895C0
:1002F00029D1811101C00AD108952ED0A1DEFBD0F1
:1003000028DF52DFA2DEFAD058DF6CE670E08DE61F
:1003100090E086DFDDD1789440D099DEFED01CDFFE
:10032000E8D1EC01C851DC4FCE01EFD18111FCCFF7
:100330003DD021DFADDF99DFBCDFDADF14D1A2DEF3
:1003400060916C0080916D003FDF882389F332DF7C
:100350008111EECFF3D0ECCF85B78F7B85BFBA98F4
:10036000C29A089586B3847008958091700088239E
:1003700019F01092700081E0089580917100882337
:1003800019F01092710081E0089580916E00882329
:1003900019F010926E0081E0089510926F00109293
:1003A00070001092710010926E00089580916F009D
:1003B0008230D9F028F4882361F0813089F10895E2
:1003C000843009F46BC008F44BC0853009F479C05F
:1003D0000895B2998FC082E080936F008AD1C2964F
:1003E00090937300809372000895B29B03C01092A3
:1003F0006F000895809172009091730086D18823D8
:1004000059F081E080936F0074D18259904F90939E
:10041000730080937200089582E080936F000895C6
:10042000809172009091730070D1882349F084E02C
:1004300080936F0081E08093710080936E00089537
:10044000B29904C081E080936F00089583E08093A7
:100450006F004FD1C29690937300809372000895FD
:10046000B2990BC081E080936F0043D18259904FC5
:100470009093730080937200089580917200909120
:10048000730043D1882331F010926F0081E0809394
:100490007000089583E080936F000895B29904C0BE
:1004A00081E080936E00089585E080936F0021D1F4
:1004B000C296909373008093720081E080936E00E7
:1004C0000895B29907C084E080936F0081E0809323
:1004D0006E000895809172009091730016D1882368
:1004E00019F010926F00089585E080936F0081E00D
:1004F00080936E000895B99AC19A0895C19808959D
:10050000C19A089588B38695817008952BDE88235B
:1005100011F0F4DF0895F4DF08951092790010923D
:10052000780010927A0010927700089581E080930D
:100530007A00089581E080937700089581E08093A8
:1005400074000895809179002091780030E0280FA0
:10055000311D80917B00280F311D81E0121613069A
:100560000CF080E0089580917A00882381F0EADF22
:100570008111A8C010927A0083E080937900C0DFD7
:10058000B8D0805B9F4F90937600809375008091E8
:100590007400882381F0D6DF811121C0109274008D
:1005A00081E080937B00ACDFA4D0805B9F4F909371
:1005B00076008093750080917700882381F0C2DFF8
:1005C00081110DC01092770081E08093780098DF50
:1005D00090D0805C9E4F90937600809375008091C0
:1005E0007900882311F180917500909176008DD06B
:1005F0008823D9F087DF811110C080917900815064
:1006000080937900882389F07BDF73D0805B9F4FD4
:10061000909376008093750008C070DF6AD0805B8D
:100620009F4F909376008093750080917B00882384
:1006300011F1809175009091760067D08823D9F0F0
:1006400061DF811110C080917B00815080937B001D
:10065000882389F055DF4DD0805B9F4F90937600C3
:100660008093750008C04ADF44D0805B9F4F909311
:1006700076008093750080917800882341F1809105
:1006800075009091760041D0882309F13BDF8111FC
:1006900010C0809178008150809378008823B9F051
:1006A0002FDF27D0805C9E4F90937600809375005B
:1006B000089524DF1ED0805C9E4F90937600809337
:1006C0007500089580917400811189CF74CF0895C9
:1006D00010927D0010927C0081E08CBD82E08ABD8A
:1006E00012BE8DE789BD80E188BF89BF83E083BFEB
:1006F000089589B78F7E89BF20917C0030917D005D
:1007000099B7906199BFC9010895CF93DF93EC0128
:10071000F0DF21E08C179D0708F420E0822FDF91A5
:10072000CF9108951F920F920FB60F9211248F93BD
:100730009F9380917C0090917D00019690937D0025
:1007400080937C009F918F910F900FBE0F901F9010
:100750001895E199FECF9FBB8EBBE09A99278DB388
:100760000895262FE199FECF9FBB8EBBE09A01979B
:100770000DB2021639F01CBA2DBB0FB6F894E29AEE
:0A078000E19A0FBE0895F894FFCF30
:00000001FF
