:100000000EC01DC01CC01BC01AC019C018C017C02C
:1000100016C015C075C313C012C011C010C0112482
:100020001FBECFE5D2E0DEBFCDBF20E0A0E6B0E04E
:1000300001C01D92AF37B207E1F737D192C3E0CFCD
:10004000BB9AC3980895C39A0895C39808951092CF
:100050006500109260000895809165008130C1F0C4
:1000600018F0863069F13CC080916000882309F463
:1000700042C081508093600081E08093650027D367
:1000800086509F4F9093640080936300DCDF089557
:10009000809163009091640026D3882361F086E00C
:1000A0008093650014D388539F4F90936200809390
:1000B0006100CBDF089581E080936500C4DF08957F
:1000C00080916100909162000ED3882321F01092FC
:1000D0006500BBDF089586E080936500B6DF089574
:1000E00086E080936500F3D288539F4F909362001F
:1000F00080936100AADF089513D1811102C0A3DFAC
:100100000895A3DF0895BC98C498089581E0809372
:10011000690080936800089580916800089586B30F
:100120008295817091E089270895CF93F8DFC82FD9
:1001300080916900C81731F0CAD20A96909367007F
:1001400080936600C093690080916600909167007B
:10015000CAD28111C0936800CF91089585B78F7B73
:1001600085BFB898C09A089586B38170089510929B
:100170006A00089581E080936A000895982F809125
:100180006A00882391F0E1990FC0992311F08FE064
:1001900001C080E06111806F682F82E390E0CFD2D0
:1001A00010926A0081E0089580E00895682F20E0B1
:1001B00030E080E070E0AB01022E02C0559547951B
:1001C0000A94E2F740FD8F5F2F5F3F4F27303105E4
:1001D00091F70895EF92FF921F93CF93DF937C01E5
:1001E000EB0182E390E0A3D2182F12951F708F705D
:1001F000DDDF833020F081E0F701808302C0F7016A
:100200001082812FD3DF833018F081E0888301C012
:100210001882DF91CF911F91FF90EF90089583D0C6
:10022000882379F080916B0081110BC080916E0062
:10023000882319F010926E0003C081E080936E0055
:1002400099DF089578D0882369F080916B00882326
:1002500021F010926B0058D104C081E080936B00B4
:1002600057D188DF08956FD0882311F0EEDE08950E
:1002700080916B00882311F03FDF08954DDF8111DD
:1002800004C080916E00811107C046DF882331F0E1
:1002900080916E00811102C0D6DE0895D6DE0895E9
:1002A0003FD1811101C020D1089534D0C9DE11D1D0
:1002B0002ADF54DFCADE10D15ADF6BE670E08EE62B
:1002C00090E088DFF3D1789446D0C1DE14D11EDFF0
:1002D000FED188519C4F90936D0080936C0080916B
:1002E0006C0090916D00FFD18823C9F33DD01DDFD4
:1002F000A9DF95DFB8DFD4DF24D1AEDE60916B00DB
:1003000080916E003BDF882389F32EDF8111EECFD1
:1003100003D1ECCF85B78F7B85BFBA98C29A089579
:1003200086B38470089580917100882319F010922B
:10033000710081E0089580917200882319F0109275
:10034000720081E0089580916F00882319F0109267
:100350006F0081E008951092700010927100109269
:10036000720010926F000895809170008230D9F071
:1003700028F4882361F0813089F10895843009F4EC
:100380007BC008F45BC0853009F489C00895B29938
:100390009FC082E0809370009AD1C29690937400BF
:1003A000809373000895B29B03C01092700008956B
:1003B000809173009091740096D1882359F081E068
:1003C0008093700084D18259904F909374008093F1
:1003D0007300089582E0809370000895B29B1AC064
:1003E00080917300909174007ED1882349F084E05D
:1003F0008093700081E08093720080936F00089575
:1004000083E08093700063D1C296909374008093D0
:1004100073000895809173009091740064D18823D3
:1004200049F084E08093700081E0809372008093B3
:100430006F00089581E0809370000895B2990BC019
:1004400081E08093700043D18259904F9093740063
:10045000809373000895809173009091740043D14C
:10046000882331F01092700081E08093710008952C
:1004700083E0809370000895B29904C081E0809376
:100480006F00089585E08093700021D1C29690930B
:1004900074008093730081E080936F000895B29997
:1004A00007C084E08093700081E080936F0008951E
:1004B000809173009091740016D1882319F01092E6
:1004C0007000089585E08093700081E080936F0054
:1004D0000895B99AC19A0895C1980895C19A089546
:1004E00088B386958170089517DE882311F0F4DFB4
:1004F0000895F4DF089510927A0010927900109216
:100500007B0010927800089581E080937B0008952D
:1005100081E080937800089581E0809375000895CC
:1005200080917A002091790030E0280F311D809170
:100530007C00280F311D81E0121613060CF080E0BC
:10054000089580917B00882381F0EADF8111A8C0A3
:1005500010927B0083E080937A00C0DFB8D0805B8C
:100560009F4F909377008093760080917500882349
:1005700081F0D6DF811121C01092750081E0809357
:100580007C00ACDFA4D0805B9F4F9093770080937A
:10059000760080917800882381F0C2DF81110DC040
:1005A0001092780081E08093790098DF90D0805C91
:1005B0009E4F909377008093760080917A008823F5
:1005C00011F180917600909177008DD08823D9F039
:1005D00087DF811110C080917A00815080937A006A
:1005E000882389F07BDF73D0805B9F4F90937700E7
:1005F0008093760008C070DF6AD0805B9F4F909335
:1006000077008093760080917C00882311F180919F
:1006100076009091770067D08823D9F061DF81114F
:1006200010C080917C00815080937C00882389F0E9
:1006300055DF4DD0805B9F4F90937700809376007D
:1006400008C04ADF44D0805B9F4F9093770080932F
:10065000760080917900882341F180917600909115
:10066000770041D0882309F13BDF811110C08091D0
:1006700079008150809379008823B9F02FDF27D04B
:10068000805C9E4F9093770080937600089524DFDE
:100690001ED0805C9E4F90937700809376000895E3
:1006A00080917500811189CF74CF089510927E00DA
:1006B00010927D0081E08CBD82E08ABD12BE8DE784
:1006C00089BD80E188BF89BF83E083BF089589B772
:1006D0008F7E89BF20917D0030917E0099B7906117
:1006E00099BFC9010895CF93DF93EC01F0DF21E0BA
:1006F0008C179D0708F420E0822FDF91CF91089599
:100700001F920F920FB60F9211248F939F93809197
:100710007D0090917E00019690937E0080937D00F5
:100720009F918F910F900FBE0F901F901895E19998
:10073000FECF9FBB8EBBE09A99278DB30895262FDD
:10074000E199FECF9FBB8EBBE09A01970DB20216D6
:1007500039F01CBA2DBB0FB6F894E29AE19A0FBE9D
:060760000895F894FFCF9C
:00000001FF
