:100000000EC01DC01CC01BC01AC019C018C017C02C
:1000100016C015C00AC313C012C011C010C01124ED
:100020001FBECFE5D2E0DEBFCDBF20E0A0E6B0E04E
:1000300001C01D92AB37B207E1F72AD127C3E0CF49
:10004000BB9AC3980895C39A0895C39808951092CF
:100050006500109260000895809165008130C1F0C4
:1000600018F0863069F13CC080916000882309F463
:1000700042C081508093600081E080936500BCD2D3
:1000800086509F4F9093640080936300DCDF089557
:100090008091630090916400BBD2882361F086E078
:1000A00080936500A9D288539F4F909362008093FC
:1000B0006100CBDF089581E080936500C4DF08957F
:1000C0008091610090916200A3D2882321F0109268
:1000D0006500BBDF089586E080936500B6DF089574
:1000E00086E08093650088D288539F4F909362008A
:1000F00080936100AADF0895F1D0811102C0A3DFCF
:100100000895A3DF0895BC98C498089581E0809372
:10011000690080936800089580916800089586B30F
:100120008295817091E089270895CF93F8DFC82FD9
:1001300080916900C81731F05FD20A9690936700EA
:1001400080936600C093690080916600909167007B
:100150005FD28111C0936800CF91089510926A0018
:10016000089581E080936A00089590916A00992330
:1001700079F0E1990DC0882311F08FE001C080E093
:100180006111806F682F82E390E06ED210926A0056
:100190000895682F20E030E080E070E0AB01022E8F
:1001A00002C0559547950A94E2F740FD8F5F2F5F97
:1001B0003F4F2730310591F70895EF92FF921F933B
:1001C000CF93DF937C01EB0182E390E045D2182FBF
:1001D00012951F708F70DDDF833020F081E0F70112
:1001E000808302C0F7011082812FD3DF833018F0A3
:1001F00081E0888301C01882DF91CF911F91FF9029
:10020000EF9008956ED0882379F080916B00811172
:100210000BC080916C00882319F010926C0003C011
:1002200081E080936C009DDF089563D0882369F09E
:1002300080916B00882321F010926B0037D104C0AD
:1002400081E080936B002ED18CDF08955AD08823F3
:1002500011F0FBDE089580916B00882311F04CDFD4
:1002600008955ADF811104C080916C00811107C08C
:1002700053DF882331F080916C00811102C0E3DEEE
:100280000895E3DE089515D1811101C0FBD00895D2
:100290001FD0D6DEECD037DFD8DEECD05FDF6BE6E8
:1002A00070E08CE690E089DF96D1789432D0CFDE92
:1002B000F0D02CDF37D039DFB8DFA4DFC7DFE3DFD2
:1002C00005D1CADE60916B0080916C004EDFF2CFE9
:1002D00085B78F7B85BFBA98C29A089586B384701C
:1002E000089580916F00882319F010926F0081E0CB
:1002F000089580917000882319F01092700081E0B9
:10030000089580916D00882319F010926D0081E0AE
:10031000089510926E0010926F001092700010926B
:100320006D00089580916E008230D9F028F4882302
:1003300061F0813089F10895843009F46BC008F4CC
:100340004BC0853009F479C00895B2998FC082E01E
:1003500080936E0051D1C296909372008093710089
:100360000895B29B03C010926E00089580917100B1
:10037000909172004DD1882359F081E080936E00F6
:100380003BD18259904F90937200809371000895F1
:1003900082E080936E0008958091710090917200C8
:1003A00037D1882349F084E080936E0081E0809308
:1003B000700080936D000895B29904C081E080932D
:1003C0006E00089583E080936E0016D1C2969093DC
:1003D0007200809371000895B2990BC081E0809300
:1003E0006E000AD18259904F9093720080937100F1
:1003F000089580917100909172000AD1882331F0A4
:1004000010926E0081E080936F00089583E08093E6
:100410006E000895B29904C081E080936D00089544
:1004200085E080936E00E8D0C2969093720080932E
:10043000710081E080936D000895B29907C084E057
:1004400080936E0081E080936D000895809171002B
:1004500090917200DDD0882319F010926E000895FB
:1004600085E080936E0081E080936D000895B99AD5
:10047000C19A0895C1980895C19A089588B3869540
:100480008170089549DE882311F0F4DF0895F4DFC8
:1004900008951092770010927600109278001092D2
:1004A0007500089581E0809378000895109275009A
:1004B0000895809177002091760030E0280F311D5B
:1004C00081E0121613060CF080E008958091780008
:1004D0008823A9F080917700811177C08091760000
:1004E00081114CC01092780083E080937700C4DFC4
:1004F00083D0805B9F4F90937400809373008091B2
:1005000075008823A9F080917700811115C0809132
:100510007600811137C01092750081E080937600DB
:10052000ABDF6AD0805C9E4F909374008093730021
:1005300080917700882311F180917300909174006D
:1005400067D08823D9F09ADF811110C0809177009D
:10055000815080937700882389F08EDF4DD0805BB7
:100560009F4F909374008093730008C083DF44D042
:10057000805B9F4F9093740080937300809176000E
:10058000882341F1809173009091740041D08823B9
:1005900009F174DF811110C0809176008150809341
:1005A00076008823B9F068DF27D0805C9E4F909357
:1005B00074008093730008955DDF1ED0805C9E4FB1
:1005C0009093740080937300089580917500811159
:1005D000B3CFAECF089510927A001092790081E0E7
:1005E0008CBD82E08ABD12BE8DE789BD80E188BFE7
:1005F00089BF83E083BF089589B78F7E89BF20912B
:10060000790030917A0099B7906199BFC901089536
:10061000CF93DF93EC01F0DF21E08C179D0708F406
:1006200020E0822FDF91CF9108951F920F920FB695
:100630000F9211248F939F938091790090917A006B
:10064000019690937A00809379009F918F910F90FB
:100650000FBE0F901F901895E199FECF9FBB8EBBE8
:10066000E09A99278DB30895262FE199FECF9FBB7D
:100670008EBBE09A01970DB2021639F01CBA2DBB61
:100680000FB6F894E29AE19A0FBE0895F894FFCF5E
:00000001FF
