:100000000EC01DC01CC01BC01AC019C018C017C02C
:1000100016C015C05FC313C012C011C010C0112498
:100020001FBECFE5D2E0DEBFCDBF20E0A0E6B0E04E
:1000300001C01D92AD37B207E1F737D17CC3E0CFE5
:10004000BB9AC3980895C39A0895C39808951092CF
:100050006500109260000895809165008130C1F0C4
:1000600018F0863069F13CC080916000882309F463
:1000700042C081508093600081E08093650011D37D
:1000800086509F4F9093640080936300DCDF089557
:10009000809163009091640010D3882361F086E022
:1000A00080936500FED288539F4F909362008093A7
:1000B0006100CBDF089581E080936500C4DF08957F
:1000C0008091610090916200F8D2882321F0109213
:1000D0006500BBDF089586E080936500B6DF089574
:1000E00086E080936500DDD288539F4F9093620035
:1000F00080936100AADF08950DD1811102C0A3DFB2
:100100000895A3DF0895BC98C498089581E0809372
:10011000690080936800089580916800089586B30F
:100120008295817091E089270895CF93F8DFC82FD9
:1001300080916900C81731F0B4D20A969093670095
:1001400080936600C093690080916600909167007B
:10015000B4D28111C0936800CF91089585B78F7B89
:1001600085BFB898C09A089586B38170089510929B
:100170006A00089581E080936A000895982F809125
:100180006A00882391F0E1990FC0992311F08FE064
:1001900001C080E06111806F682F82E390E0B9D2E6
:1001A00010926A0081E0089580E00895682F20E0B1
:1001B00030E080E070E0AB01022E02C0559547951B
:1001C0000A94E2F740FD8F5F2F5F3F4F27303105E4
:1001D00091F70895EF92FF921F93CF93DF937C01E5
:1001E000EB0182E390E08DD2182F12951F708F7073
:1001F000DDDF833020F081E0F701808302C0F7016A
:100200001082812FD3DF833018F081E0888301C012
:100210001882DF91CF911F91FF90EF9008957DD0CC
:10022000882379F080916B0081110BC080916C0064
:10023000882319F010926C0003C081E080936C0059
:1002400099DF089572D0882369F080916B0088232C
:1002500021F010926B0042D104C081E080936B00CA
:1002600041D188DF089569D0882311F0EEDE08952A
:1002700080916B00882311F03FDF08954DDF8111DD
:1002800004C080916C00811107C046DF882331F0E3
:1002900080916C00811102C0D6DE0895D6DE0895EB
:1002A00029D1811101C00AD108952ED0C9DEFBD019
:1002B0002ADF54DFCADEFAD05ADF6BE670E08CE644
:1002C00090E088DFDDD1789440D0C1DEFED01EDF23
:1002D000E8D1EC01C851DC4FCE01EFD18111FCCF48
:1002E0003DD023DFAFDF9BDFBEDFDADF14D1B4DE2A
:1002F00060916B0080916C0041DF882389F334DFCB
:100300008111EECFF3D0ECCF85B78F7B85BFBA9844
:10031000C29A089586B38470089580916F008823EF
:1003200019F010926F0081E0089580917000882389
:1003300019F01092700081E0089580916D0088237B
:1003400019F010926D0081E0089510926E001092E5
:100350006F001092700010926D00089580916E00F1
:100360008230D9F028F4882361F0813089F1089532
:10037000843009F46BC008F44BC0853009F479C0AF
:100380000895B2998FC082E080936E008AD1C296A0
:1003900090937200809371000895B29B03C01092F5
:1003A0006E000895809171009091720086D188232B
:1003B00059F081E080936E0074D18259904F9093F0
:1003C000720080937100089582E080936E0008951A
:1003D000809171009091720070D1882349F084E07F
:1003E00080936E0081E08093700080936D0008958B
:1003F000B29904C081E080936E00089583E08093F9
:100400006E004FD1C2969093720080937100089550
:10041000B2990BC081E080936E0043D18259904F16
:100420009093720080937100089580917100909173
:10043000720043D1882331F010926E0081E08093E6
:100440006F00089583E080936E000895B29904C010
:1004500081E080936D00089585E080936E0021D146
:10046000C296909372008093710081E080936D003A
:100470000895B29907C084E080936E0081E0809374
:100480006D000895809171009091720016D18823BB
:1004900019F010926E00089585E080936E0081E05F
:1004A00080936D000895B99AC19A0895C1980895EE
:1004B000C19A089588B38695817008952DDE8823AA
:1004C00011F0F4DF0895F4DF08951092780010928F
:1004D00077001092790010927600089581E0809361
:1004E0007900089581E080937600089581E08093FB
:1004F00073000895809178002091770030E0280FF4
:10050000311D80917A00280F311D81E012161306EB
:100510000CF080E0089580917900882381F0EADF73
:100520008111A8C01092790083E080937800C0DF29
:10053000B8D0805B9F4F909375008093740080913A
:100540007300882381F0D6DF811121C010927300DF
:1005500081E080937A00ACDFA4D0805B9F4F9093C2
:1005600075008093740080917600882381F0C2DF4B
:1005700081110DC01092760081E08093770098DFA2
:1005800090D0805C9E4F9093750080937400809112
:100590007800882311F180917400909175008DD0BE
:1005A0008823D9F087DF811110C0809178008150B5
:1005B00080937800882389F07BDF73D0805B9F4F26
:1005C000909375008093740008C070DF6AD0805BE0
:1005D0009F4F909375008093740080917A008823D8
:1005E00011F1809174009091750067D08823D9F043
:1005F00061DF811110C080917A00815080937A0070
:10060000882389F055DF4DD0805B9F4F9093750014
:100610008093740008C04ADF44D0805B9F4F909362
:1006200075008093740080917700882341F1809158
:1006300074009091750041D0882309F13BDF81114E
:1006400010C0809177008150809377008823B9F0A3
:100650002FDF27D0805C9E4F9093750080937400AD
:10066000089524DF1ED0805C9E4F90937500809388
:100670007400089580917300811189CF74CF08951B
:1006800010927C0010927B0081E08CBD82E08ABDDC
:1006900012BE8DE789BD80E188BF89BF83E083BF3B
:1006A000089589B78F7E89BF20917B0030917C00AF
:1006B00099B7906199BFC9010895CF93DF93EC0179
:1006C000F0DF21E08C179D0708F420E0822FDF91F6
:1006D000CF9108951F920F920FB60F9211248F930E
:1006E0009F9380917B0090917C00019690937C0079
:1006F00080937B009F918F910F900FBE0F901F9062
:100700001895E199FECF9FBB8EBBE09A99278DB3D8
:100710000895262FE199FECF9FBB8EBBE09A0197EB
:100720000DB2021639F01CBA2DBB0FB6F894E29A3E
:0A073000E19A0FBE0895F894FFCF80
:00000001FF
