:100000000EC01DC01CC01BC01AC019C018C017C02C
:1000100016C015C010C213C012C011C010C01124E8
:100020001FBECFE5D2E0DEBFCDBF20E0A0E6B0E04E
:1000300001C01D92AE36B207E1F79BD12DC2E0CFD1
:10004000BB9AC3980895C39A0895C39808951092CF
:100050006500109260000895809165008130C1F0C4
:1000600018F0863069F13CC080916000882309F463
:1000700042C081508093600081E080936500C2D1CE
:1000800086509F4F9093640080936300DCDF089557
:100090008091630090916400C1D1882361F086E073
:1000A00080936500AFD188539F4F909362008093F7
:1000B0006100CBDF089581E080936500C4DF08957F
:1000C0008091610090916200A9D1882321F0109263
:1000D0006500BBDF089586E080936500B6DF089574
:1000E00086E0809365008ED188539F4F9093620085
:1000F00080936100AADF0895809160008F3F19F01E
:100100008F5F80936000089581E090916500911168
:1001100001C080E0089554D1811102C094DF089598
:1001200094DF0895BC98C498089586B38295817031
:1001300091E08927089510926600089581E08093E8
:100140006600089590916600992379F0E1990DC0B9
:10015000882311F08FE001C080E06111806F682F6B
:1001600080E090E087D1109266000895682F20E02B
:1001700030E080E070E0AB01022E02C0559547955B
:100180000A94E2F740FD8F5F2F5F3F4F2730310524
:1001900091F70895EF92FF921F93CF93DF937C0125
:1001A000EB0180E090E05ED1182F12951F708F70E8
:1001B000DDDF833020F081E0F701808302C0F701AA
:1001C0001082812FD3DF833018F081E0888301C053
:1001D0001882DF91CF911F91FF90EF900895A5DFD6
:1001E000811104C080916800811107C09EDF8823BF
:1001F00041F080916800811104C086DF811101C047
:100200007BDF0895809169008230F9F028F488231B
:1002100061F08130B1F10895843009F495C008F49B
:1002200082C0853009F454C00895CAD081110AC033
:1002300082E080936900E6D0C29690936B00809331
:100240006A000895109269000895BAD0882319F0C1
:1002500010926900089580916A0090916B00DED041
:10026000882359F081E080936900CCD08259904F67
:1002700090936B0080936A00089582E080936900F8
:10028000089580916A0090916B00C8D0882379F01E
:1002900083E08093690080916700882319F01092B1
:1002A000670003C081E08093670048DF089588D02D
:1002B000811104C081E080936900089585E08093F6
:1002C0006900A0D0C29690936B0080936A00089555
:1002D00077D081110BC081E08093690093D082595F
:1002E000904F90936B0080936A00089580916A000C
:1002F00090916B0093D0882391F0109269008091C7
:100300006700811135C080916800882319F0109230
:10031000680003C081E08093680010DF089585E0E5
:100320008093690008954CD0811104C083E08093CC
:100330006900089584E08093690064D0C296909328
:100340006B0080936A0008953BD0811104C083E064
:1003500080936900089580916A0090916B005ED04F
:10036000882319F010926900089584E08093690051
:10037000089520D065DE27D0D5DE67DE27D0DBDE0E
:1003800067E670E088E690E005DF2BD07894109265
:1003900069005DDE37DF80916700882311F0BBDEE6
:1003A00001C01DDF17D058DE6091670080916800A2
:1003B000C9DEF0CF85B78F7B85BFBA98C29A089502
:1003C00086B384700895B99AC19A0895C198089522
:1003D000C19A0895AADE882311F0F8DF0895F8DFA6
:1003E000089510926D0010926C0081E08CBD82E047
:1003F0008ABD12BE8DE789BD80E188BF89BF83E0D9
:1004000083BF089589B78F7E89BF20916C0030919A
:100410006D0099B7906199BFC9010895CF93DF939B
:10042000EC01F0DF21E08C179D0708F420E0822F1B
:10043000DF91CF9108951F920F920FB60F92112462
:100440008F939F9380916C0090916D000196909393
:100450006D0080936C009F918F910F900FBE0F9055
:100460001F901895E199FECF9FBB8EBBE09A99270C
:100470008DB30895262FE199FECF9FBB8EBBE09AE6
:1004800001970DB2021639F01CBA2DBB0FB6F894C5
:0C049000E29AE19A0FBE0895F894FFCFA5
:00000001FF
